:0400000092EF04F087
:1006000000474554202F6368616E6E656C732F330D
:1006100034313131382F66656564732E6A736F6EBD
:100620003F6B65793D3055375A4C4758484E3447F3
:10063000494C53484126726573756C74733D310D96
:100640000A0041542B43574A41503D224A5344200B
:10065000454C454354524F4E49435320222C224788
:100660005053424F585F6A736440282A265E3534DF
:10067000333231220D0A0041542B43495053544127
:1006800052543D342C22544350222C223138342EE3
:100690003130362E3135332E313439222C38300D6D
:1006A0000A0041542B4349505345525645523D315F
:1006B0002C38300D0A0041542B43495053454E44C9
:1006C0003D342C36340D0A0041542B4349504D55CE
:1006D000583D310D0A0041540D0A0000000E0F0173
:1006E0003A6F800E946E000E936E000E0F01396FFC
:1006F000000E0E6EC20E0F6E010E106E000E116E09
:1007000055EC04F0290E156E960E146E7F0EE82E31
:10071000FED7142EFCD7152EFAD700F0420E016E2C
:10072000060E026E7CEC04F0290E156E960E146E09
:100730007F0EE82EFED7142EFCD7152EFAD700F028
:10074000000E176E000E166ED60E016E060E026EAD
:100750007CEC04F0290E156E960E146E7F0EE82EBA
:10076000FED7142EFCD7152EFAD700F0C80E016E56
:10077000060E026E7CEC04F0290E156E960E146EB9
:100780007F0EE82EFED7142EFCD7152EFAD700F0D8
:10079000A20E016E060E026E7CEC04F0290E156EA0
:1007A000960E146E7F0EE82EFED7142EFCD7152E53
:1007B000FAD700F0770E016E060E026E7CEC04F0A4
:1007C000290E156E960E146E7F0EE82EFED7142E8F
:1007D000FCD7152EFAD700F0B60E016E060E026E8B
:1007E0007CEC04F0290E156E960E146E7F0EE82E2A
:1007F000FED7142EFCD7152EFAD700F0010E016E8D
:10080000060E026E7CEC04F0290E156E960E146E28
:100810007F0EE82EFED7142EFCD7152EFAD700F047
:1008200099EC04F0816E90D7000E096E000E0A6EEE
:10083000000E0B6E000E0C6E05500610071008100F
:10084000D8B42AD0010E0D6E06D0D89005360636E3
:10085000073608360D2A08AEF8D7D89009360A367A
:100860000B360C360550015C0650025807500358F1
:1008700008500458D8A009D00550015E0650025A0D
:100880000750035A0850045A0980D890083207329A
:10089000063205320D2EE1D709C001F00AC002F080
:1008A0000BC003F00CC004F01200000EAC6E000E82
:1008B000AB6EAC98B886AB8EAB88AC84AC8A000EBD
:1008C000016E090E026E3D0E036E000E046E0EC028
:1008D00005F00FC006F010C007F011C008F014ECCE
:1008E00004F0FF0E0124126EFF0E0220136E13504F
:1008F000B06E12C0AFFF12000BD09EA8FED701C091
:10090000F6FF02C0F7FF0800F5CFADFF014A022A4B
:1009100001C0F6FF02C0F7FF0800F5500009D8B487
:100920001200EBD7000EF86E060EF76E00016EEFA8
:0A09300003F09EAAFED7AE5012009D
:020000040020DA
:08000000FFFFFFFFFFFFFFFF00
:020000040030CA
:0E000000FF031F3CFFB580FF0FC00FE00F4055
:00000001FF
